{
  "contractName": "Evaluator",
  "abi": [
    {
      "inputs": [
        {
          "internalType": "contract ERC20TD",
          "name": "_TDERC20",
          "type": "address"
        },
        {
          "internalType": "address payable",
          "name": "_referenceBouncerProxy",
          "type": "address"
        }
      ],
      "stateMutability": "nonpayable",
      "type": "constructor"
    },
    {
      "anonymous": false,
      "inputs": [
        {
          "indexed": false,
          "internalType": "address",
          "name": "_account",
          "type": "address"
        },
        {
          "indexed": false,
          "internalType": "bool",
          "name": "_value",
          "type": "bool"
        }
      ],
      "name": "UpdateWhitelist",
      "type": "event"
    },
    {
      "anonymous": false,
      "inputs": [
        {
          "indexed": false,
          "internalType": "address",
          "name": "erc20Address",
          "type": "address"
        },
        {
          "indexed": false,
          "internalType": "address",
          "name": "referenceBouncerProxy",
          "type": "address"
        }
      ],
      "name": "constructedCorrectly",
      "type": "event"
    },
    {
      "anonymous": false,
      "inputs": [
        {
          "indexed": false,
          "internalType": "bytes32",
          "name": "data",
          "type": "bytes32"
        },
        {
          "indexed": false,
          "internalType": "bytes",
          "name": "sig",
          "type": "bytes"
        }
      ],
      "name": "newRandomBytes32AndSig",
      "type": "event"
    },
    {
      "stateMutability": "payable",
      "type": "fallback"
    },
    {
      "inputs": [
        {
          "internalType": "address",
          "name": "",
          "type": "address"
        },
        {
          "internalType": "uint256",
          "name": "",
          "type": "uint256"
        }
      ],
      "name": "exerciceProgression",
      "outputs": [
        {
          "internalType": "bool",
          "name": "",
          "type": "bool"
        }
      ],
      "stateMutability": "view",
      "type": "function"
    },
    {
      "inputs": [
        {
          "internalType": "address",
          "name": "",
          "type": "address"
        }
      ],
      "name": "hasBeenPaired",
      "outputs": [
        {
          "internalType": "bool",
          "name": "",
          "type": "bool"
        }
      ],
      "stateMutability": "view",
      "type": "function"
    },
    {
      "inputs": [],
      "name": "nextValueStoreRank",
      "outputs": [
        {
          "internalType": "uint256",
          "name": "",
          "type": "uint256"
        }
      ],
      "stateMutability": "view",
      "type": "function"
    },
    {
      "inputs": [],
      "name": "referenceBouncerProxy",
      "outputs": [
        {
          "internalType": "address payable",
          "name": "",
          "type": "address"
        }
      ],
      "stateMutability": "view",
      "type": "function"
    },
    {
      "inputs": [
        {
          "internalType": "bytes32",
          "name": "",
          "type": "bytes32"
        }
      ],
      "name": "signedBytes32",
      "outputs": [
        {
          "internalType": "bool",
          "name": "",
          "type": "bool"
        }
      ],
      "stateMutability": "view",
      "type": "function"
    },
    {
      "inputs": [
        {
          "internalType": "address",
          "name": "",
          "type": "address"
        }
      ],
      "name": "studentExerciceSolution",
      "outputs": [
        {
          "internalType": "contract IExerciceSolution",
          "name": "",
          "type": "address"
        }
      ],
      "stateMutability": "view",
      "type": "function"
    },
    {
      "inputs": [
        {
          "internalType": "address",
          "name": "",
          "type": "address"
        }
      ],
      "name": "teachers",
      "outputs": [
        {
          "internalType": "bool",
          "name": "",
          "type": "bool"
        }
      ],
      "stateMutability": "view",
      "type": "function"
    },
    {
      "stateMutability": "payable",
      "type": "receive"
    },
    {
      "inputs": [],
      "name": "ex1_testERC721",
      "outputs": [],
      "stateMutability": "nonpayable",
      "type": "function"
    },
    {
      "inputs": [
        {
          "internalType": "bytes",
          "name": "_signature",
          "type": "bytes"
        }
      ],
      "name": "ex2_generateASignature",
      "outputs": [],
      "stateMutability": "nonpayable",
      "type": "function"
    },
    {
      "inputs": [],
      "name": "ex3_extractAddressFromSignature",
      "outputs": [],
      "stateMutability": "nonpayable",
      "type": "function"
    },
    {
      "inputs": [
        {
          "internalType": "bytes32",
          "name": "_aBytes32YouChose",
          "type": "bytes32"
        },
        {
          "internalType": "bytes",
          "name": "_theAssociatedSignature",
          "type": "bytes"
        }
      ],
      "name": "ex4_manageWhiteListWithSignature",
      "outputs": [],
      "stateMutability": "nonpayable",
      "type": "function"
    },
    {
      "inputs": [
        {
          "internalType": "bytes",
          "name": "_theRequiredSignature",
          "type": "bytes"
        }
      ],
      "name": "ex5_mintATokenWithASpecificSignature",
      "outputs": [],
      "stateMutability": "nonpayable",
      "type": "function"
    },
    {
      "inputs": [
        {
          "internalType": "address payable",
          "name": "myBouncerProxy",
          "type": "address"
        }
      ],
      "name": "ex6_deployBouncerProxyAndWhitelistYourself",
      "outputs": [],
      "stateMutability": "nonpayable",
      "type": "function"
    },
    {
      "inputs": [],
      "name": "ex7_useBouncerProxyToCallEvaluator",
      "outputs": [],
      "stateMutability": "nonpayable",
      "type": "function"
    },
    {
      "inputs": [],
      "name": "ex8_allInOne",
      "outputs": [],
      "stateMutability": "nonpayable",
      "type": "function"
    },
    {
      "inputs": [
        {
          "internalType": "contract IExerciceSolution",
          "name": "studentExercice",
          "type": "address"
        }
      ],
      "name": "submitExercice",
      "outputs": [],
      "stateMutability": "nonpayable",
      "type": "function"
    },
    {
      "inputs": [
        {
          "internalType": "bytes32[20]",
          "name": "_randomData",
          "type": "bytes32[20]"
        },
        {
          "internalType": "bytes[20]",
          "name": "_signatures",
          "type": "bytes[20]"
        }
      ],
      "name": "setRandomBytes32AndSignature",
      "outputs": [],
      "stateMutability": "nonpayable",
      "type": "function"
    },
    {
      "inputs": [
        {
          "internalType": "bytes32",
          "name": "_bytes32",
          "type": "bytes32"
        }
      ],
      "name": "bytes32ToString",
      "outputs": [
        {
          "internalType": "string",
          "name": "",
          "type": "string"
        }
      ],
      "stateMutability": "pure",
      "type": "function"
    }
  ],
  "bytecode": "0x60806040523480156200001157600080fd5b50604051620051023803806200510283398181016040526200003791908101906200016e565b81600160006101000a81548173ffffffffffffffffffffffffffffffffffffffff021916908373ffffffffffffffffffffffffffffffffffffffff16021790555080602f60006101000a81548173ffffffffffffffffffffffffffffffffffffffff021916908373ffffffffffffffffffffffffffffffffffffffff1602179055507faec105056259e6e944bb71151b9922f56b566fb88054f082eef397db7ccddf2a600160009054906101000a900473ffffffffffffffffffffffffffffffffffffffff16602f60009054906101000a900473ffffffffffffffffffffffffffffffffffffffff1660405162000130929190620001d1565b60405180910390a15050620002ca565b600081519050620001518162000296565b92915050565b6000815190506200016881620002b0565b92915050565b600080604083850312156200018257600080fd5b6000620001928582860162000157565b9250506020620001a58582860162000140565b9150509250929050565b620001ba816200025a565b82525050565b620001cb81620001fe565b82525050565b6000604082019050620001e86000830185620001c0565b620001f76020830184620001af565b9392505050565b60006200020b826200023a565b9050919050565b60006200021f826200023a565b9050919050565b60006200023382620001fe565b9050919050565b600073ffffffffffffffffffffffffffffffffffffffff82169050919050565b600062000267826200026e565b9050919050565b60006200027b8262000282565b9050919050565b60006200028f826200023a565b9050919050565b620002a18162000212565b8114620002ad57600080fd5b50565b620002bb8162000226565b8114620002c757600080fd5b50565b614e2880620002da6000396000f3fe60806040526004361061010d5760003560e01c80639201de5511610095578063d6d1de7811610064578063d6d1de7814610349578063dede624c14610372578063f0a47f7814610389578063f4fdbb88146103c6578063fff31a2f1461040357610114565b80639201de55146102a3578063b2c8c14c146102e0578063b3c0faae14610309578063bd1445461461032057610114565b806323b88aba116100dc57806323b88aba146101bc5780632e64c500146101e75780633027f7a01461022457806339119dce1461023b57806342acd0ab1461026657610114565b8063026c4e541461011657806304cc50de1461013f5780630b961254146101565780632236d3531461019357610114565b3661011457005b005b34801561012257600080fd5b5061013d60048036036101389190810190613bd4565b61042c565b005b34801561014b57600080fd5b50610154610a8e565b005b34801561016257600080fd5b5061017d60048036036101789190810190613a21565b610ee8565b60405161018a91906147a5565b60405180910390f35b34801561019f57600080fd5b506101ba60048036036101b59190810190613c15565b610f1b565b005b3480156101c857600080fd5b506101d16111a7565b6040516101de91906145f6565b60405180910390f35b3480156101f357600080fd5b5061020e60048036036102099190810190613a9c565b6111cd565b60405161021b91906146c3565b60405180910390f35b34801561023057600080fd5b506102396111fc565b005b34801561024757600080fd5b506102506114a7565b60405161025d9190614a62565b60405180910390f35b34801561027257600080fd5b5061028d60048036036102889190810190613b57565b6114ad565b60405161029a91906146c3565b60405180910390f35b3480156102af57600080fd5b506102ca60048036036102c59190810190613b57565b6114cd565b6040516102d791906147c0565b60405180910390f35b3480156102ec57600080fd5b5061030760048036036103029190810190613ad8565b61162a565b005b34801561031557600080fd5b5061031e61177f565b005b34801561032c57600080fd5b5061034760048036036103429190810190613bd4565b611b48565b005b34801561035557600080fd5b50610370600480360361036b9190810190613a73565b611d4b565b005b34801561037e57600080fd5b506103876120b9565b005b34801561039557600080fd5b506103b060048036036103ab9190810190613a21565b612d4f565b6040516103bd91906146c3565b60405180910390f35b3480156103d257600080fd5b506103ed60048036036103e89190810190613a21565b612d6f565b6040516103fa91906146c3565b60405180910390f35b34801561040f57600080fd5b5061042a60048036036104259190810190613b80565b612d8f565b005b6000600360003373ffffffffffffffffffffffffffffffffffffffff1673ffffffffffffffffffffffffffffffffffffffff16815260200190815260200160002060009054906101000a900473ffffffffffffffffffffffffffffffffffffffff1673ffffffffffffffffffffffffffffffffffffffff1663574490cd6040518163ffffffff1660e01b8152600401602060405180830381600087803b1580156104d557600080fd5b505af11580156104e9573d6000803e3d6000fd5b505050506040513d601f19601f8201168201806040525061050d9190810190613a4a565b90506000819050600030328460405160200161052b9392919061455d565b604051602081830303815290604052805190602001209050600061054f8286613522565b90503273ffffffffffffffffffffffffffffffffffffffff168173ffffffffffffffffffffffffffffffffffffffff16146105bf576040517f08c379a00000000000000000000000000000000000000000000000000000000081526004016105b690614a22565b60405180910390fd5b60008373ffffffffffffffffffffffffffffffffffffffff166370a08231306040518263ffffffff1660e01b81526004016105fa91906145db565b60206040518083038186803b15801561061257600080fd5b505afa158015610626573d6000803e3d6000fd5b505050506040513d601f19601f8201168201806040525061064a9190810190613c3e565b90506000600360003373ffffffffffffffffffffffffffffffffffffffff1673ffffffffffffffffffffffffffffffffffffffff16815260200190815260200160002060009054906101000a900473ffffffffffffffffffffffffffffffffffffffff1673ffffffffffffffffffffffffffffffffffffffff16639a9a291f886040518263ffffffff1660e01b81526004016106e69190614783565b602060405180830381600087803b15801561070057600080fd5b505af1158015610714573d6000803e3d6000fd5b505050506040513d601f19601f820116820180604052506107389190810190613c3e565b905060008573ffffffffffffffffffffffffffffffffffffffff166370a08231306040518263ffffffff1660e01b815260040161077591906145db565b60206040518083038186803b15801561078d57600080fd5b505afa1580156107a1573d6000803e3d6000fd5b505050506040513d601f19601f820116820180604052506107c59190810190613c3e565b905060018301811461080c576040517f08c379a000000000000000000000000000000000000000000000000000000000815260040161080390614a42565b60405180910390fd5b3073ffffffffffffffffffffffffffffffffffffffff168673ffffffffffffffffffffffffffffffffffffffff16636352211e846040518263ffffffff1660e01b815260040161085c9190614a62565b60206040518083038186803b15801561087457600080fd5b505afa158015610888573d6000803e3d6000fd5b505050506040513d601f19601f820116820180604052506108ac9190810190613a4a565b73ffffffffffffffffffffffffffffffffffffffff1614610902576040517f08c379a00000000000000000000000000000000000000000000000000000000081526004016108f9906148e2565b60405180910390fd5b6001602d600082825401925050819055506014602d5410610926576000602d819055505b600260003373ffffffffffffffffffffffffffffffffffffffff1673ffffffffffffffffffffffffffffffffffffffff16815260200190815260200160002060006005815260200190815260200160002060009054906101000a900460ff16610a84576001600260003373ffffffffffffffffffffffffffffffffffffffff1673ffffffffffffffffffffffffffffffffffffffff16815260200190815260200160002060006005815260200190815260200160002060006101000a81548160ff021916908315150217905550600160009054906101000a900473ffffffffffffffffffffffffffffffffffffffff1673ffffffffffffffffffffffffffffffffffffffff1663158a49883360036040518363ffffffff1660e01b8152600401610a51929190614671565b600060405180830381600087803b158015610a6b57600080fd5b505af1158015610a7f573d6000803e3d6000fd5b505050505b5050505050505050565b6000600160009054906101000a900473ffffffffffffffffffffffffffffffffffffffff1673ffffffffffffffffffffffffffffffffffffffff166370a08231336040518263ffffffff1660e01b8152600401610aeb91906145db565b60206040518083038186803b158015610b0357600080fd5b505afa158015610b17573d6000803e3d6000fd5b505050506040513d601f19601f82011682018060405250610b3b9190810190613c3e565b905060008114610b80576040517f08c379a0000000000000000000000000000000000000000000000000000000008152600401610b7790614882565b60405180910390fd5b60003390508073ffffffffffffffffffffffffffffffffffffffff166359b4726c6040518163ffffffff1660e01b8152600401600060405180830381600087803b158015610bcd57600080fd5b505af1158015610be1573d6000803e3d6000fd5b505050506000600160009054906101000a900473ffffffffffffffffffffffffffffffffffffffff1673ffffffffffffffffffffffffffffffffffffffff166370a08231336040518263ffffffff1660e01b8152600401610c4291906145db565b60206040518083038186803b158015610c5a57600080fd5b505afa158015610c6e573d6000803e3d6000fd5b505050506040513d601f19601f82011682018060405250610c929190810190613c3e565b90506000600160009054906101000a900473ffffffffffffffffffffffffffffffffffffffff1673ffffffffffffffffffffffffffffffffffffffff1663313ce5676040518163ffffffff1660e01b815260040160206040518083038186803b158015610cfe57600080fd5b505afa158015610d12573d6000803e3d6000fd5b505050506040513d601f19601f82011682018060405250610d369190810190613c67565b60ff169050601081600a0a02821015610d84576040517f08c379a0000000000000000000000000000000000000000000000000000000008152600401610d7b90614962565b60405180910390fd5b600260003373ffffffffffffffffffffffffffffffffffffffff1673ffffffffffffffffffffffffffffffffffffffff16815260200190815260200160002060006008815260200190815260200160002060009054906101000a900460ff16610ee2576001600260003373ffffffffffffffffffffffffffffffffffffffff1673ffffffffffffffffffffffffffffffffffffffff16815260200190815260200160002060006008815260200190815260200160002060006101000a81548160ff021916908315150217905550600160009054906101000a900473ffffffffffffffffffffffffffffffffffffffff1673ffffffffffffffffffffffffffffffffffffffff1663158a49883360026040518363ffffffff1660e01b8152600401610eaf929190614648565b600060405180830381600087803b158015610ec957600080fd5b505af1158015610edd573d6000803e3d6000fd5b505050505b50505050565b60036020528060005260406000206000915054906101000a900473ffffffffffffffffffffffffffffffffffffffff1681565b600460008273ffffffffffffffffffffffffffffffffffffffff1673ffffffffffffffffffffffffffffffffffffffff16815260200190815260200160002060009054906101000a900460ff1615610f7257600080fd5b80600360003373ffffffffffffffffffffffffffffffffffffffff1673ffffffffffffffffffffffffffffffffffffffff16815260200190815260200160002060006101000a81548173ffffffffffffffffffffffffffffffffffffffff021916908373ffffffffffffffffffffffffffffffffffffffff1602179055506001600460008373ffffffffffffffffffffffffffffffffffffffff1673ffffffffffffffffffffffffffffffffffffffff16815260200190815260200160002060006101000a81548160ff021916908315150217905550600260003373ffffffffffffffffffffffffffffffffffffffff1673ffffffffffffffffffffffffffffffffffffffff168152602001908152602001600020600080815260200190815260200160002060009054906101000a900460ff166111a4576001600260003373ffffffffffffffffffffffffffffffffffffffff1673ffffffffffffffffffffffffffffffffffffffff168152602001908152602001600020600080815260200190815260200160002060006101000a81548160ff021916908315150217905550600160009054906101000a900473ffffffffffffffffffffffffffffffffffffffff1673ffffffffffffffffffffffffffffffffffffffff1663158a49883360026040518363ffffffff1660e01b8152600401611171929190614648565b600060405180830381600087803b15801561118b57600080fd5b505af115801561119f573d6000803e3d6000fd5b505050505b50565b602f60009054906101000a900473ffffffffffffffffffffffffffffffffffffffff1681565b60026020528160005260406000206020528060005260406000206000915091509054906101000a900460ff1681565b600080339050803f9150600080602f60009054906101000a900473ffffffffffffffffffffffffffffffffffffffff169050803f9150838214611274576040517f08c379a000000000000000000000000000000000000000000000000000000000815260040161126b906149a2565b60405180910390fd5b60003390508073ffffffffffffffffffffffffffffffffffffffff16639b19251a326040518263ffffffff1660e01b81526004016112b291906145db565b60206040518083038186803b1580156112ca57600080fd5b505afa1580156112de573d6000803e3d6000fd5b505050506040513d601f19601f820116820180604052506113029190810190613b2e565b15611342576040517f08c379a000000000000000000000000000000000000000000000000000000000815260040161133990614942565b60405180910390fd5b600260003373ffffffffffffffffffffffffffffffffffffffff1673ffffffffffffffffffffffffffffffffffffffff16815260200190815260200160002060006007815260200190815260200160002060009054906101000a900460ff166114a0576001600260003373ffffffffffffffffffffffffffffffffffffffff1673ffffffffffffffffffffffffffffffffffffffff16815260200190815260200160002060006007815260200190815260200160002060006101000a81548160ff021916908315150217905550600160009054906101000a900473ffffffffffffffffffffffffffffffffffffffff1673ffffffffffffffffffffffffffffffffffffffff1663158a49883360046040518363ffffffff1660e01b815260040161146d92919061469a565b600060405180830381600087803b15801561148757600080fd5b505af115801561149b573d6000803e3d6000fd5b505050505b5050505050565b602d5481565b602e6020528060005260406000206000915054906101000a900460ff1681565b606060008090505b60208160ff161080156115205750600060f81b838260ff16602081106114f757fe5b1a60f81b7effffffffffffffffffffffffffffffffffffffffffffffffffffffffffffff191614155b156115325780806001019150506114d5565b60608160ff166040519080825280601f01601f19166020018201604052801561156a5781602001600182028038833980820191505090505b509050600091505b60208260ff161080156115bd5750600060f81b848360ff166020811061159457fe5b1a60f81b7effffffffffffffffffffffffffffffffffffffffffffffffffffffffffffff191614155b1561162057838260ff16602081106115d157fe5b1a60f81b818360ff16815181106115e457fe5b60200101907effffffffffffffffffffffffffffffffffffffffffffffffffffffffffffff1916908160001a9053508180600101925050611572565b8092505050919050565b600160009054906101000a900473ffffffffffffffffffffffffffffffffffffffff1673ffffffffffffffffffffffffffffffffffffffff1663f0a47f78336040518263ffffffff1660e01b815260040161168591906145db565b60206040518083038186803b15801561169d57600080fd5b505afa1580156116b1573d6000803e3d6000fd5b505050506040513d601f19601f820116820180604052506116d59190810190613b2e565b6116de57600080fd5b8160059060146116ef929190613612565b50806019906014611701929190613652565b506000602d8190555060008090505b601481101561177a577fc396a7839f15bca18b63cda01cf4c42871d939b4f58995afbd1bd99c1b7d59126005826014811061174757fe5b01546019836014811061175657fe5b0160405161176592919061470e565b60405180910390a18080600101915050611710565b505050565b60006118436005602d546014811061179357fe5b01546019602d54601481106117a457fe5b018054600181600116156101000203166002900480601f0160208091040260200160405190810160405280929190818152602001828054600181600116156101000203166002900480156118395780601f1061180e57610100808354040283529160200191611839565b820191906000526020600020905b81548152906001019060200180831161181c57829003601f168201915b5050505050613522565b90506000600360003373ffffffffffffffffffffffffffffffffffffffff1673ffffffffffffffffffffffffffffffffffffffff16815260200190815260200160002060009054906101000a900473ffffffffffffffffffffffffffffffffffffffff1673ffffffffffffffffffffffffffffffffffffffff166379d336066005602d54601481106118d157fe5b01546019602d54601481106118e257fe5b016040518363ffffffff1660e01b815260040161190092919061470e565b602060405180830381600087803b15801561191a57600080fd5b505af115801561192e573d6000803e3d6000fd5b505050506040513d601f19601f820116820180604052506119529190810190613a4a565b90508073ffffffffffffffffffffffffffffffffffffffff168273ffffffffffffffffffffffffffffffffffffffff16146119c2576040517f08c379a00000000000000000000000000000000000000000000000000000000081526004016119b9906149e2565b60405180910390fd5b6001602d600082825401925050819055506014602d54106119e6576000602d819055505b600260003373ffffffffffffffffffffffffffffffffffffffff1673ffffffffffffffffffffffffffffffffffffffff16815260200190815260200160002060006003815260200190815260200160002060009054906101000a900460ff16611b44576001600260003373ffffffffffffffffffffffffffffffffffffffff1673ffffffffffffffffffffffffffffffffffffffff16815260200190815260200160002060006003815260200190815260200160002060006101000a81548160ff021916908315150217905550600160009054906101000a900473ffffffffffffffffffffffffffffffffffffffff1673ffffffffffffffffffffffffffffffffffffffff1663158a49883360026040518363ffffffff1660e01b8152600401611b11929190614648565b600060405180830381600087803b158015611b2b57600080fd5b505af1158015611b3f573d6000803e3d6000fd5b505050505b5050565b60007b596f75206e65656420746f207369676e207468697320737472696e6760001b90506000611b788284613522565b90508073ffffffffffffffffffffffffffffffffffffffff163273ffffffffffffffffffffffffffffffffffffffff1614611be8576040517f08c379a0000000000000000000000000000000000000000000000000000000008152600401611bdf90614a22565b60405180910390fd5b600260003373ffffffffffffffffffffffffffffffffffffffff1673ffffffffffffffffffffffffffffffffffffffff16815260200190815260200160002060006002815260200190815260200160002060009054906101000a900460ff16611d46576001600260003373ffffffffffffffffffffffffffffffffffffffff1673ffffffffffffffffffffffffffffffffffffffff16815260200190815260200160002060006002815260200190815260200160002060006101000a81548160ff021916908315150217905550600160009054906101000a900473ffffffffffffffffffffffffffffffffffffffff1673ffffffffffffffffffffffffffffffffffffffff1663158a49883360026040518363ffffffff1660e01b8152600401611d13929190614648565b600060405180830381600087803b158015611d2d57600080fd5b505af1158015611d41573d6000803e3d6000fd5b505050505b505050565b60008190506000823f9050600080602f60009054906101000a900473ffffffffffffffffffffffffffffffffffffffff169050803f9150828214611dc4576040517f08c379a0000000000000000000000000000000000000000000000000000000008152600401611dbb906149a2565b60405180910390fd5b8373ffffffffffffffffffffffffffffffffffffffff16639b19251a326040518263ffffffff1660e01b8152600401611dfd91906145db565b60206040518083038186803b158015611e1557600080fd5b505afa158015611e29573d6000803e3d6000fd5b505050506040513d601f19601f82011682018060405250611e4d9190810190613b2e565b611e8c576040517f08c379a0000000000000000000000000000000000000000000000000000000008152600401611e8390614842565b60405180910390fd5b8373ffffffffffffffffffffffffffffffffffffffff16639b19251a336040518263ffffffff1660e01b8152600401611ec591906145db565b60206040518083038186803b158015611edd57600080fd5b505afa158015611ef1573d6000803e3d6000fd5b505050506040513d601f19601f82011682018060405250611f159190810190613b2e565b611f54576040517f08c379a0000000000000000000000000000000000000000000000000000000008152600401611f4b90614802565b60405180910390fd5b600260003373ffffffffffffffffffffffffffffffffffffffff1673ffffffffffffffffffffffffffffffffffffffff16815260200190815260200160002060006006815260200190815260200160002060009054906101000a900460ff166120b2576001600260003373ffffffffffffffffffffffffffffffffffffffff1673ffffffffffffffffffffffffffffffffffffffff16815260200190815260200160002060006006815260200190815260200160002060006101000a81548160ff021916908315150217905550600160009054906101000a900473ffffffffffffffffffffffffffffffffffffffff1673ffffffffffffffffffffffffffffffffffffffff1663158a49883360036040518363ffffffff1660e01b815260040161207f929190614671565b600060405180830381600087803b15801561209957600080fd5b505af11580156120ad573d6000803e3d6000fd5b505050505b5050505050565b600260003373ffffffffffffffffffffffffffffffffffffffff1673ffffffffffffffffffffffffffffffffffffffff168152602001908152602001600020600080815260200190815260200160002060009054906101000a900460ff16612156576040517f08c379a000000000000000000000000000000000000000000000000000000000815260040161214d90614a02565b60405180910390fd5b6000600360003373ffffffffffffffffffffffffffffffffffffffff1673ffffffffffffffffffffffffffffffffffffffff16815260200190815260200160002060009054906101000a900473ffffffffffffffffffffffffffffffffffffffff1673ffffffffffffffffffffffffffffffffffffffff1663574490cd6040518163ffffffff1660e01b8152600401602060405180830381600087803b1580156121ff57600080fd5b505af1158015612213573d6000803e3d6000fd5b505050506040513d601f19601f820116820180604052506122379190810190613a4a565b90506000819050600360003373ffffffffffffffffffffffffffffffffffffffff1673ffffffffffffffffffffffffffffffffffffffff16815260200190815260200160002060009054906101000a900473ffffffffffffffffffffffffffffffffffffffff1673ffffffffffffffffffffffffffffffffffffffff168273ffffffffffffffffffffffffffffffffffffffff16141561230c576040517f08c379a000000000000000000000000000000000000000000000000000000000815260040161230390614922565b60405180910390fd5b60008173ffffffffffffffffffffffffffffffffffffffff166370a08231306040518263ffffffff1660e01b815260040161234791906145db565b60206040518083038186803b15801561235f57600080fd5b505afa158015612373573d6000803e3d6000fd5b505050506040513d601f19601f820116820180604052506123979190810190613c3e565b905060008273ffffffffffffffffffffffffffffffffffffffff166370a08231600360003373ffffffffffffffffffffffffffffffffffffffff1673ffffffffffffffffffffffffffffffffffffffff16815260200190815260200160002060009054906101000a900473ffffffffffffffffffffffffffffffffffffffff166040518263ffffffff1660e01b815260040161243391906145c0565b60206040518083038186803b15801561244b57600080fd5b505afa15801561245f573d6000803e3d6000fd5b505050506040513d601f19601f820116820180604052506124839190810190613c3e565b90506000600360003373ffffffffffffffffffffffffffffffffffffffff1673ffffffffffffffffffffffffffffffffffffffff16815260200190815260200160002060009054906101000a900473ffffffffffffffffffffffffffffffffffffffff1673ffffffffffffffffffffffffffffffffffffffff1663ac4fec216040518163ffffffff1660e01b8152600401602060405180830381600087803b15801561252e57600080fd5b505af1158015612542573d6000803e3d6000fd5b505050506040513d601f19601f820116820180604052506125669190810190613c3e565b905060008473ffffffffffffffffffffffffffffffffffffffff166370a08231306040518263ffffffff1660e01b81526004016125a391906145db565b60206040518083038186803b1580156125bb57600080fd5b505afa1580156125cf573d6000803e3d6000fd5b505050506040513d601f19601f820116820180604052506125f39190810190613c3e565b905060008573ffffffffffffffffffffffffffffffffffffffff166370a08231600360003373ffffffffffffffffffffffffffffffffffffffff1673ffffffffffffffffffffffffffffffffffffffff16815260200190815260200160002060009054906101000a900473ffffffffffffffffffffffffffffffffffffffff166040518263ffffffff1660e01b815260040161268f91906145c0565b60206040518083038186803b1580156126a757600080fd5b505afa1580156126bb573d6000803e3d6000fd5b505050506040513d601f19601f820116820180604052506126df9190810190613c3e565b9050600185018214612726576040517f08c379a000000000000000000000000000000000000000000000000000000000815260040161271d90614a42565b60405180910390fd5b3073ffffffffffffffffffffffffffffffffffffffff168673ffffffffffffffffffffffffffffffffffffffff16636352211e856040518263ffffffff1660e01b81526004016127769190614a62565b60206040518083038186803b15801561278e57600080fd5b505afa1580156127a2573d6000803e3d6000fd5b505050506040513d601f19601f820116820180604052506127c69190810190613a4a565b73ffffffffffffffffffffffffffffffffffffffff161461281c576040517f08c379a0000000000000000000000000000000000000000000000000000000008152600401612813906148e2565b60405180910390fd5b83811461285e576040517f08c379a000000000000000000000000000000000000000000000000000000000815260040161285590614822565b60405180910390fd5b60008673ffffffffffffffffffffffffffffffffffffffff166370a08231336040518263ffffffff1660e01b815260040161289991906145db565b60206040518083038186803b1580156128b157600080fd5b505afa1580156128c5573d6000803e3d6000fd5b505050506040513d601f19601f820116820180604052506128e99190810190613c3e565b90508673ffffffffffffffffffffffffffffffffffffffff166342842e0e3033876040518463ffffffff1660e01b815260040161292893929190614611565b600060405180830381600087803b15801561294257600080fd5b505af1158015612956573d6000803e3d6000fd5b50505050858773ffffffffffffffffffffffffffffffffffffffff166370a08231306040518263ffffffff1660e01b815260040161299491906145db565b60206040518083038186803b1580156129ac57600080fd5b505afa1580156129c0573d6000803e3d6000fd5b505050506040513d601f19601f820116820180604052506129e49190810190613c3e565b14612a24576040517f08c379a0000000000000000000000000000000000000000000000000000000008152600401612a1b906148c2565b60405180910390fd5b3373ffffffffffffffffffffffffffffffffffffffff168773ffffffffffffffffffffffffffffffffffffffff16636352211e866040518263ffffffff1660e01b8152600401612a749190614a62565b60206040518083038186803b158015612a8c57600080fd5b505afa158015612aa0573d6000803e3d6000fd5b505050506040513d601f19601f82011682018060405250612ac49190810190613a4a565b73ffffffffffffffffffffffffffffffffffffffff1614612b1a576040517f08c379a0000000000000000000000000000000000000000000000000000000008152600401612b11906148a2565b60405180910390fd5b600181018773ffffffffffffffffffffffffffffffffffffffff166370a08231336040518263ffffffff1660e01b8152600401612b5791906145db565b60206040518083038186803b158015612b6f57600080fd5b505afa158015612b83573d6000803e3d6000fd5b505050506040513d601f19601f82011682018060405250612ba79190810190613c3e565b14612be7576040517f08c379a0000000000000000000000000000000000000000000000000000000008152600401612bde90614902565b60405180910390fd5b600260003373ffffffffffffffffffffffffffffffffffffffff1673ffffffffffffffffffffffffffffffffffffffff16815260200190815260200160002060006001815260200190815260200160002060009054906101000a900460ff16612d45576001600260003373ffffffffffffffffffffffffffffffffffffffff1673ffffffffffffffffffffffffffffffffffffffff16815260200190815260200160002060006001815260200190815260200160002060006101000a81548160ff021916908315150217905550600160009054906101000a900473ffffffffffffffffffffffffffffffffffffffff1673ffffffffffffffffffffffffffffffffffffffff1663158a49883360026040518363ffffffff1660e01b8152600401612d12929190614648565b600060405180830381600087803b158015612d2c57600080fd5b505af1158015612d40573d6000803e3d6000fd5b505050505b5050505050505050565b60006020528060005260406000206000915054906101000a900460ff1681565b60046020528060005260406000206000915054906101000a900460ff1681565b6000612d9b8383613522565b90503273ffffffffffffffffffffffffffffffffffffffff168173ffffffffffffffffffffffffffffffffffffffff1614612e0b576040517f08c379a0000000000000000000000000000000000000000000000000000000008152600401612e0290614a22565b60405180910390fd5b600360003373ffffffffffffffffffffffffffffffffffffffff1673ffffffffffffffffffffffffffffffffffffffff16815260200190815260200160002060009054906101000a900473ffffffffffffffffffffffffffffffffffffffff1673ffffffffffffffffffffffffffffffffffffffff16639b19251a826040518263ffffffff1660e01b8152600401612ea391906145c0565b602060405180830381600087803b158015612ebd57600080fd5b505af1158015612ed1573d6000803e3d6000fd5b505050506040513d601f19601f82011682018060405250612ef59190810190613b2e565b612f34576040517f08c379a0000000000000000000000000000000000000000000000000000000008152600401612f2b90614982565b60405180910390fd5b600360003373ffffffffffffffffffffffffffffffffffffffff1673ffffffffffffffffffffffffffffffffffffffff16815260200190815260200160002060009054906101000a900473ffffffffffffffffffffffffffffffffffffffff1673ffffffffffffffffffffffffffffffffffffffff16637d851a1384846040518363ffffffff1660e01b8152600401612fce9291906146de565b602060405180830381600087803b158015612fe857600080fd5b505af1158015612ffc573d6000803e3d6000fd5b505050506040513d601f19601f820116820180604052506130209190810190613b2e565b61305f576040517f08c379a0000000000000000000000000000000000000000000000000000000008152600401613056906147e2565b60405180910390fd5b60006131236005602d546014811061307357fe5b01546019602d546014811061308457fe5b018054600181600116156101000203166002900480601f0160208091040260200160405190810160405280929190818152602001828054600181600116156101000203166002900480156131195780601f106130ee57610100808354040283529160200191613119565b820191906000526020600020905b8154815290600101906020018083116130fc57829003601f168201915b5050505050613522565b9050600360003373ffffffffffffffffffffffffffffffffffffffff1673ffffffffffffffffffffffffffffffffffffffff16815260200190815260200160002060009054906101000a900473ffffffffffffffffffffffffffffffffffffffff1673ffffffffffffffffffffffffffffffffffffffff16639b19251a826040518263ffffffff1660e01b81526004016131bd91906145c0565b602060405180830381600087803b1580156131d757600080fd5b505af11580156131eb573d6000803e3d6000fd5b505050506040513d601f19601f8201168201806040525061320f9190810190613b2e565b1561324f576040517f08c379a000000000000000000000000000000000000000000000000000000000815260040161324690614862565b60405180910390fd5b600360003373ffffffffffffffffffffffffffffffffffffffff1673ffffffffffffffffffffffffffffffffffffffff16815260200190815260200160002060009054906101000a900473ffffffffffffffffffffffffffffffffffffffff1673ffffffffffffffffffffffffffffffffffffffff16637d851a136005602d54601481106132d957fe5b01546019602d54601481106132ea57fe5b016040518363ffffffff1660e01b815260040161330892919061470e565b602060405180830381600087803b15801561332257600080fd5b505af1158015613336573d6000803e3d6000fd5b505050506040513d601f19601f8201168201806040525061335a9190810190613b2e565b1561339a576040517f08c379a0000000000000000000000000000000000000000000000000000000008152600401613391906149c2565b60405180910390fd5b6001602d600082825401925050819055506014602d54106133be576000602d819055505b600260003373ffffffffffffffffffffffffffffffffffffffff1673ffffffffffffffffffffffffffffffffffffffff16815260200190815260200160002060006004815260200190815260200160002060009054906101000a900460ff1661351c576001600260003373ffffffffffffffffffffffffffffffffffffffff1673ffffffffffffffffffffffffffffffffffffffff16815260200190815260200160002060006004815260200190815260200160002060006101000a81548160ff021916908315150217905550600160009054906101000a900473ffffffffffffffffffffffffffffffffffffffff1673ffffffffffffffffffffffffffffffffffffffff1663158a49883360026040518363ffffffff1660e01b81526004016134e9929190614648565b600060405180830381600087803b15801561350357600080fd5b505af1158015613517573d6000803e3d6000fd5b505050505b50505050565b600080600080604185511461353d576000935050505061360c565b6020850151925060408501519150606085015160001a9050601b8160ff16101561356857601b810190505b601b8160ff16141580156135805750601c8160ff1614155b15613591576000935050505061360c565b6001866040516020016135a4919061459a565b60405160208183030381529060405280519060200120828585604051600081526020016040526040516135da949392919061473e565b6020604051602081039080840390855afa1580156135fc573d6000803e3d6000fd5b5050506020604051035193505050505b92915050565b8260148101928215613641579160200282015b82811115613640578251825591602001919060010190613625565b5b50905061364e91906136a5565b5090565b8260148101928215613694579160200282015b828111156136935782518290805190602001906136839291906136ca565b5091602001919060010190613665565b5b5090506136a1919061374a565b5090565b6136c791905b808211156136c35760008160009055506001016136ab565b5090565b90565b828054600181600116156101000203166002900490600052602060002090601f016020900481019282601f1061370b57805160ff1916838001178555613739565b82800160010185558215613739579182015b8281111561373857825182559160200191906001019061371d565b5b5090506137469190613776565b5090565b61377391905b8082111561376f5760008181613766919061379b565b50600101613750565b5090565b90565b61379891905b8082111561379457600081600090555060010161377c565b5090565b90565b50805460018160011615610100020316600290046000825580601f106137c157506137e0565b601f0160209004906000526020600020908101906137df9190613776565b5b50565b6000813590506137f281614d51565b92915050565b60008151905061380781614d51565b92915050565b60008135905061381c81614d68565b92915050565b600082601f83011261383357600080fd5b601461384661384182614aaa565b614a7d565b9150818385602084028201111561385c57600080fd5b60005b8381101561388c57816138728882613910565b84526020840193506020830192505060018101905061385f565b5050505092915050565b600082601f8301126138a757600080fd5b60146138ba6138b582614acc565b614a7d565b9150818360005b838110156138f157813586016138d78882613925565b8452602084019350602083019250506001810190506138c1565b5050505092915050565b60008151905061390a81614d7f565b92915050565b60008135905061391f81614d96565b92915050565b600082601f83011261393657600080fd5b813561394961394482614aee565b614a7d565b9150808252602083016020830185838301111561396557600080fd5b613970838284614cb1565b50505092915050565b600082601f83011261398a57600080fd5b813561399d61399882614b1a565b614a7d565b915080825260208301602083018583830111156139b957600080fd5b6139c4838284614cb1565b50505092915050565b6000813590506139dc81614dad565b92915050565b6000813590506139f181614dc4565b92915050565b600081519050613a0681614dc4565b92915050565b600081519050613a1b81614ddb565b92915050565b600060208284031215613a3357600080fd5b6000613a41848285016137e3565b91505092915050565b600060208284031215613a5c57600080fd5b6000613a6a848285016137f8565b91505092915050565b600060208284031215613a8557600080fd5b6000613a938482850161380d565b91505092915050565b60008060408385031215613aaf57600080fd5b6000613abd858286016137e3565b9250506020613ace858286016139e2565b9150509250929050565b6000806102a08385031215613aec57600080fd5b6000613afa85828601613822565b92505061028083013567ffffffffffffffff811115613b1857600080fd5b613b2485828601613896565b9150509250929050565b600060208284031215613b4057600080fd5b6000613b4e848285016138fb565b91505092915050565b600060208284031215613b6957600080fd5b6000613b7784828501613910565b91505092915050565b60008060408385031215613b9357600080fd5b6000613ba185828601613910565b925050602083013567ffffffffffffffff811115613bbe57600080fd5b613bca85828601613979565b9150509250929050565b600060208284031215613be657600080fd5b600082013567ffffffffffffffff811115613c0057600080fd5b613c0c84828501613979565b91505092915050565b600060208284031215613c2757600080fd5b6000613c35848285016139cd565b91505092915050565b600060208284031215613c5057600080fd5b6000613c5e848285016139f7565b91505092915050565b600060208284031215613c7957600080fd5b6000613c8784828501613a0c565b91505092915050565b613c9981614c21565b82525050565b613ca881614bb0565b82525050565b613cbf613cba82614bb0565b614d05565b82525050565b613cce81614b9e565b82525050565b613ce5613ce082614b9e565b614cf3565b82525050565b613cf481614bc2565b82525050565b613d0381614bce565b82525050565b613d1a613d1582614bce565b614d17565b82525050565b6000613d2b82614b5b565b613d358185614b71565b9350613d45818560208601614cc0565b613d4e81614d33565b840191505092915050565b600081546001811660008114613d765760018114613d9c57613de0565b607f6002830416613d878187614b71565b955060ff198316865260208601935050613de0565b60028204613daa8187614b71565b9550613db585614b46565b60005b82811015613dd757815481890152600182019150602081019050613db8565b80880195505050505b505092915050565b613df181614c33565b82525050565b613e0081614c57565b82525050565b613e0f81614c69565b82525050565b613e1e81614c7b565b82525050565b6000613e2f82614b66565b613e398185614b82565b9350613e49818560208601614cc0565b613e5281614d33565b840191505092915050565b6000613e6a602183614b82565b91507f5369676e6174757265206e6f742076616c69646174656420636f72726563746c60008301527f79000000000000000000000000000000000000000000000000000000000000006020830152604082019050919050565b6000613ed0602183614b82565b91507f4d6573736167652073656e646572206973206e6f742077686974656c6973746560008301527f64000000000000000000000000000000000000000000000000000000000000006020830152604082019050919050565b6000613f36602483614b82565b91507f4d696e7465722062616c616e6365206368616e6765642c20646964206e6f742060008301527f6d696e74000000000000000000000000000000000000000000000000000000006020830152604082019050919050565b6000613f9c601c83614b93565b91507f19457468657265756d205369676e6564204d6573736167653a0a3332000000006000830152601c82019050919050565b6000613fdc602083614b82565b91507f5478206f726967696e61746f72206973206e6f742077686974656c69737465646000830152602082019050919050565b600061401c601c83614b82565b91507f52616e646f6d207369676e65722069732077686974656c6973746564000000006000830152602082019050919050565b600061405c602383614b82565b91507f536f6c7574696f6e2073686f756c642073746172742077697468203020706f6960008301527f6e747300000000000000000000000000000000000000000000000000000000006020830152604082019050919050565b60006140c2601c83614b82565b91507f546f6b656e20646f6573206e6f742062656c6f6e6720746f20796f75000000006000830152602082019050919050565b6000614102602783614b82565b91507f42616c616e636520646964206e6f74206465637265617365206166746572207460008301527f72616e73666572000000000000000000000000000000000000000000000000006020830152604082019050919050565b6000614168602283614b82565b91507f4e657720746f6b656e20646f6573206e6f742062656c6f6e6720746f206d656560008301527f65650000000000000000000000000000000000000000000000000000000000006020830152604082019050919050565b60006141ce602783614b82565b91507f42616c616e636520646964206e6f7420696e637265617365206166746572207460008301527f72616e73666572000000000000000000000000000000000000000000000000006020830152604082019050919050565b6000614234601e83614b82565b91507f45524337323120616e64206d696e74657220617265207468652073616d6500006000830152602082019050919050565b6000614274601c83614b82565b91507f5478206f726967696e61746f722069732077686974656c6973746564000000006000830152602082019050919050565b60006142b4602f83614b82565b91507f536f6c7574696f6e2073686f756c6420656e642077697468206174206c65617360008301527f74207468616e203220706f696e747300000000000000000000000000000000006020830152604082019050919050565b600061431a601a83614b82565b91507f6f726967696e61746f72206e6f742077686974656c69737465640000000000006000830152602082019050919050565b600061435a602983614b82565b91507f4465706c6f79656420636f646520697320646966666572656e742066726f6d2060008301527f7265666572656e636500000000000000000000000000000000000000000000006020830152604082019050919050565b60006143c0601683614b82565b91507f52616e646f6d207369676e617475726520776f726b73000000000000000000006000830152602082019050919050565b6000614400602383614b82565b91507f5369676e6174757265206e6f7420696e74657270726574656420636f7272656360008301527f746c7900000000000000000000000000000000000000000000000000000000006020830152604082019050919050565b6000614466601583614b82565b91507f4e6f20736f6c7574696f6e207375626d697474656400000000000000000000006000830152602082019050919050565b60006144a6602683614b82565b91507f7369676e617475726520646f6573206e6f74206d61746368207478206f72696760008301527f696e61746f7200000000000000000000000000000000000000000000000000006020830152604082019050919050565b600061450c601983614b82565b91507f446964206e6f742072656365697665206f6e6520746f6b656e000000000000006000830152602082019050919050565b61454881614c0a565b82525050565b61455781614c14565b82525050565b60006145698286613cae565b6014820191506145798285613cae565b6014820191506145898284613cd4565b601482019150819050949350505050565b60006145a582613f8f565b91506145b18284613d09565b60208201915081905092915050565b60006020820190506145d56000830184613cc5565b92915050565b60006020820190506145f06000830184613c90565b92915050565b600060208201905061460b6000830184613c9f565b92915050565b60006060820190506146266000830186613c90565b6146336020830185613c90565b614640604083018461453f565b949350505050565b600060408201905061465d6000830185613c90565b61466a6020830184613df7565b9392505050565b60006040820190506146866000830185613c90565b6146936020830184613e06565b9392505050565b60006040820190506146af6000830185613c90565b6146bc6020830184613e15565b9392505050565b60006020820190506146d86000830184613ceb565b92915050565b60006040820190506146f36000830185613cfa565b81810360208301526147058184613d20565b90509392505050565b60006040820190506147236000830185613cfa565b81810360208301526147358184613d59565b90509392505050565b60006080820190506147536000830187613cfa565b614760602083018661454e565b61476d6040830185613cfa565b61477a6060830184613cfa565b95945050505050565b6000602082019050818103600083015261479d8184613d20565b905092915050565b60006020820190506147ba6000830184613de8565b92915050565b600060208201905081810360008301526147da8184613e24565b905092915050565b600060208201905081810360008301526147fb81613e5d565b9050919050565b6000602082019050818103600083015261481b81613ec3565b9050919050565b6000602082019050818103600083015261483b81613f29565b9050919050565b6000602082019050818103600083015261485b81613fcf565b9050919050565b6000602082019050818103600083015261487b8161400f565b9050919050565b6000602082019050818103600083015261489b8161404f565b9050919050565b600060208201905081810360008301526148bb816140b5565b9050919050565b600060208201905081810360008301526148db816140f5565b9050919050565b600060208201905081810360008301526148fb8161415b565b9050919050565b6000602082019050818103600083015261491b816141c1565b9050919050565b6000602082019050818103600083015261493b81614227565b9050919050565b6000602082019050818103600083015261495b81614267565b9050919050565b6000602082019050818103600083015261497b816142a7565b9050919050565b6000602082019050818103600083015261499b8161430d565b9050919050565b600060208201905081810360008301526149bb8161434d565b9050919050565b600060208201905081810360008301526149db816143b3565b9050919050565b600060208201905081810360008301526149fb816143f3565b9050919050565b60006020820190508181036000830152614a1b81614459565b9050919050565b60006020820190508181036000830152614a3b81614499565b9050919050565b60006020820190508181036000830152614a5b816144ff565b9050919050565b6000602082019050614a77600083018461453f565b92915050565b6000604051905081810181811067ffffffffffffffff82111715614aa057600080fd5b8060405250919050565b600067ffffffffffffffff821115614ac157600080fd5b602082029050919050565b600067ffffffffffffffff821115614ae357600080fd5b602082029050919050565b600067ffffffffffffffff821115614b0557600080fd5b601f19601f8301169050602081019050919050565b600067ffffffffffffffff821115614b3157600080fd5b601f19601f8301169050602081019050919050565b60008190508160005260206000209050919050565b600081519050919050565b600081519050919050565b600082825260208201905092915050565b600082825260208201905092915050565b600081905092915050565b6000614ba982614bea565b9050919050565b6000614bbb82614bea565b9050919050565b60008115159050919050565b6000819050919050565b6000614be382614b9e565b9050919050565b600073ffffffffffffffffffffffffffffffffffffffff82169050919050565b6000819050919050565b600060ff82169050919050565b6000614c2c82614c8d565b9050919050565b6000614c3e82614c45565b9050919050565b6000614c5082614bea565b9050919050565b6000614c6282614c0a565b9050919050565b6000614c7482614c0a565b9050919050565b6000614c8682614c0a565b9050919050565b6000614c9882614c9f565b9050919050565b6000614caa82614bea565b9050919050565b82818337600083830152505050565b60005b83811015614cde578082015181840152602081019050614cc3565b83811115614ced576000848401525b50505050565b6000614cfe82614d21565b9050919050565b6000614d1082614d21565b9050919050565b6000819050919050565b6000614d2c82614d44565b9050919050565b6000601f19601f8301169050919050565b60008160601b9050919050565b614d5a81614b9e565b8114614d6557600080fd5b50565b614d7181614bb0565b8114614d7c57600080fd5b50565b614d8881614bc2565b8114614d9357600080fd5b50565b614d9f81614bce565b8114614daa57600080fd5b50565b614db681614bd8565b8114614dc157600080fd5b50565b614dcd81614c0a565b8114614dd857600080fd5b50565b614de481614c14565b8114614def57600080fd5b5056fea2646970667358221220ffd324fa38709de69769aa9bcc38442b59072a5077613ccb164d673a49f78ca164736f6c63430006020033",
  "source": "pragma solidity ^0.6.0;\r\npragma experimental ABIEncoderV2;\r\n\r\nimport \"./ERC20TD.sol\";\r\nimport \"./IExerciceSolution.sol\";\r\nimport \"@openzeppelin/contracts/token/ERC721/IERC721.sol\";\r\nimport \"./BouncerProxy.sol\";\r\nimport \"./IAllInOneSolution.sol\";\r\n\r\ncontract Evaluator {\r\n\r\n    mapping(address => bool) public teachers;\r\n    ERC20TD TDERC20;\r\n   \r\n    mapping(address => mapping(uint256 => bool)) public exerciceProgression;\r\n    mapping(address => IExerciceSolution) public studentExerciceSolution;\r\n    mapping(address => bool) public hasBeenPaired;\r\n\r\n    bytes32[20] private randomBytes32ToSign;\r\n    bytes[20] private associatedSignatures;\r\n    uint public nextValueStoreRank;\r\n    mapping(bytes32 => bool) public signedBytes32;\r\n    address payable public referenceBouncerProxy;\r\n\r\n    event constructedCorrectly(address erc20Address, address referenceBouncerProxy);\r\n    event UpdateWhitelist(address _account, bool _value);\r\n    event newRandomBytes32AndSig(bytes32 data, bytes sig);\r\n\r\n    constructor(ERC20TD _TDERC20, address payable _referenceBouncerProxy) \r\n    public \r\n    {\r\n        TDERC20 = _TDERC20;\r\n        referenceBouncerProxy = _referenceBouncerProxy;\r\n        emit constructedCorrectly(address(TDERC20), referenceBouncerProxy);\r\n    }\r\n\r\n    fallback () external payable \r\n    {}\r\n\r\n    receive () external payable \r\n    {}\r\n\r\n    function ex1_testERC721()\r\n    public  \r\n    {\r\n        // Checking a solution was submitted\r\n        require(exerciceProgression[msg.sender][0], \"No solution submitted\");\r\n\r\n        // Retrieve ERC721 address from ExerciceSolution\r\n        address studentERC721Address = studentExerciceSolution[msg.sender].ERC721Address();\r\n        IERC721 studentERC721 = IERC721(studentERC721Address);\r\n\r\n        // Check they are two different contracts \r\n        require(studentERC721Address != address(studentExerciceSolution[msg.sender]), \"ERC721 and minter are the same\");\r\n\r\n        // Checking balance pre minting\r\n        uint256 evaluatorBalancePreMint = studentERC721.balanceOf(address(this));\r\n        uint256 minterBalancePreMint = studentERC721.balanceOf(address(studentExerciceSolution[msg.sender]));\r\n\r\n        // Claim a token through minter\r\n        uint256 newToken = studentExerciceSolution[msg.sender].mintATokenForMe();\r\n\r\n        // Checking balance post minting\r\n        uint256 evaluatorBalancePostMint = studentERC721.balanceOf(address(this));\r\n        uint256 minterBalancePostMint = studentERC721.balanceOf(address(studentExerciceSolution[msg.sender]));\r\n\r\n        // Check that token 1 belongs to the Evaluator\r\n        require(evaluatorBalancePostMint == evaluatorBalancePreMint + 1, \"Did not receive one token\");\r\n        require(studentERC721.ownerOf(newToken) == address(this), \"New token does not belong to meeee\");\r\n\r\n        // Check the token was minted, not lazily transferred\r\n        require(minterBalancePostMint == minterBalancePreMint, \"Minter balance changed, did not mint\");\r\n\r\n        // Check that token 1 can be transferred back to msg.sender, so it's a real ERC721\r\n        uint256 senderBalancePreTransfer = studentERC721.balanceOf(msg.sender);\r\n        studentERC721.safeTransferFrom(address(this), msg.sender, newToken);\r\n        require(studentERC721.balanceOf(address(this)) == evaluatorBalancePreMint, \"Balance did not decrease after transfer\");\r\n        require(studentERC721.ownerOf(newToken) == msg.sender, \"Token does not belong to you\");\r\n        require(studentERC721.balanceOf(msg.sender) == senderBalancePreTransfer + 1, \"Balance did not increase after transfer\");\r\n\r\n        // Crediting points\r\n        if (!exerciceProgression[msg.sender][1])\r\n        {\r\n            exerciceProgression[msg.sender][1] = true;\r\n            // ERC721 points\r\n            TDERC20.distributeTokens(msg.sender, 2);\r\n        }\r\n    }\r\n\r\n    function ex2_generateASignature(bytes memory _signature) \r\n    public \r\n    {\r\n        bytes32 stringToSignToGetPoint = 0x00000000596f75206e65656420746f207369676e207468697320737472696e67;\r\n\r\n        // If tx fails here, it means the transaction did not receive a valid signature\r\n        address signatureSender = extractAddress(stringToSignToGetPoint , _signature);\r\n        require(tx.origin == signatureSender, \"signature does not match tx originator\");\r\n\r\n        // Crediting points\r\n        if (!exerciceProgression[msg.sender][2])\r\n        {\r\n            exerciceProgression[msg.sender][2] = true;\r\n            // ERC721 points\r\n            TDERC20.distributeTokens(msg.sender, 2);\r\n        }\r\n    }\r\n\r\n    function ex3_extractAddressFromSignature() \r\n    public \r\n    {        \r\n        // Retrieving a random signature and associated address\r\n        address signatureSender = extractAddress(randomBytes32ToSign[nextValueStoreRank] , associatedSignatures[nextValueStoreRank]);\r\n\r\n        // Checking that student contract is able to extract the address from the signature\r\n        address retrievedAddressByExerciceSolution = studentExerciceSolution[msg.sender].getAddressFromSignature(randomBytes32ToSign[nextValueStoreRank] , associatedSignatures[nextValueStoreRank]);\r\n        \r\n        require(signatureSender == retrievedAddressByExerciceSolution, \"Signature not interpreted correctly\");\r\n        \r\n        // Incrementing next value store rank\r\n        nextValueStoreRank += 1;\r\n        if (nextValueStoreRank >= 20)\r\n        {\r\n            nextValueStoreRank = 0;\r\n        }\r\n\r\n        // Crediting points\r\n        if (!exerciceProgression[msg.sender][3])\r\n        {\r\n            exerciceProgression[msg.sender][3] = true;\r\n            // ERC721 points\r\n            TDERC20.distributeTokens(msg.sender, 2);\r\n        }\r\n    }\r\n\r\n    function ex4_manageWhiteListWithSignature(bytes32 _aBytes32YouChose, bytes memory _theAssociatedSignature)\r\n    public\r\n    {\r\n        // Is your signature correctly formated\r\n        address signatureSender = extractAddress(_aBytes32YouChose , _theAssociatedSignature);\r\n        // Broadcaster is signer \r\n        require(signatureSender == tx.origin, \"signature does not match tx originator\");\r\n\r\n        // Is the signer whitelisted\r\n        require(studentExerciceSolution[msg.sender].whitelist(signatureSender), \"originator not whitelisted\");\r\n        require(studentExerciceSolution[msg.sender].signerIsWhitelisted(_aBytes32YouChose, _theAssociatedSignature), \"Signature not validated correctly\");\r\n\r\n        // Extracting a random signer\r\n        address storedSignatureSender = extractAddress(randomBytes32ToSign[nextValueStoreRank] , associatedSignatures[nextValueStoreRank]);\r\n\r\n        // Is a random signer whitelisted whitelisted\r\n        require(!studentExerciceSolution[msg.sender].whitelist(storedSignatureSender), \"Random signer is whitelisted\");\r\n        require(!studentExerciceSolution[msg.sender].signerIsWhitelisted(randomBytes32ToSign[nextValueStoreRank] , associatedSignatures[nextValueStoreRank]), \"Random signature works\");\r\n        \r\n        // Incrementing next value store rank\r\n        nextValueStoreRank += 1;\r\n        if (nextValueStoreRank >= 20)\r\n        {\r\n            nextValueStoreRank = 0;\r\n        }\r\n        // Crediting points\r\n        if (!exerciceProgression[msg.sender][4])\r\n        {\r\n            exerciceProgression[msg.sender][4] = true;\r\n            // ERC721 points\r\n            TDERC20.distributeTokens(msg.sender, 2);\r\n        }\r\n    }\r\n\r\n    function ex5_mintATokenWithASpecificSignature(bytes memory _theRequiredSignature)\r\n    public\r\n    {\r\n\r\n        // Retrieve ERC721 address from ExerciceSolution\r\n        address studentERC721Address = studentExerciceSolution[msg.sender].ERC721Address();\r\n        IERC721 studentERC721 = IERC721(studentERC721Address);\r\n\r\n        // Generating the data that needs to be signed to claim a token on student contract.\r\n        // We hash the concatenation of the evaluator address, the sender's address, and the ERC721 address\r\n        bytes32 dataToSign = keccak256(abi.encodePacked(address(this), tx.origin, studentERC721Address));\r\n\r\n        // Has sender signed the correct piece of data, and extract the address\r\n        address signatureSender = extractAddress(dataToSign , _theRequiredSignature);\r\n\r\n        // Broadcaster is signer \r\n        require(signatureSender == tx.origin, \"signature does not match tx originator\");\r\n\r\n        // Checking that we own no NFT before claiming\r\n        uint256 evaluatorBalancePreMint = studentERC721.balanceOf(address(this));\r\n\r\n        // Claim a token through minter\r\n        uint256 newToken = studentExerciceSolution[msg.sender].mintATokenForMeWithASignature(_theRequiredSignature);\r\n\r\n        // Checking balance post minting\r\n        uint256 evaluatorBalancePostMint = studentERC721.balanceOf(address(this));\r\n\r\n        // Check that token 1 belongs to the Evaluator\r\n        require(evaluatorBalancePostMint == evaluatorBalancePreMint + 1, \"Did not receive one token\");\r\n        require(studentERC721.ownerOf(newToken) == address(this), \"New token does not belong to meeee\");\r\n\r\n        // Incrementing next value store rank\r\n        nextValueStoreRank += 1;\r\n        if (nextValueStoreRank >= 20)\r\n        {\r\n            nextValueStoreRank = 0;\r\n        }\r\n        // Crediting points\r\n        if (!exerciceProgression[msg.sender][5])\r\n        {\r\n            exerciceProgression[msg.sender][5] = true;\r\n            // ERC721 points\r\n            TDERC20.distributeTokens(msg.sender, 3);\r\n        }\r\n    }\r\n\r\n    function ex6_deployBouncerProxyAndWhitelistYourself(address payable myBouncerProxy)\r\n    public\r\n    {\r\n        // Build bouncer proxy\r\n        BouncerProxy localBouncer = BouncerProxy(myBouncerProxy);\r\n        // Retrieving your contract code hash\r\n        bytes32 codeHash;\r\n        assembly { codeHash := extcodehash(myBouncerProxy) }\r\n        // Checking it is the correct code hash\r\n        bytes32 referenceCodeHash;\r\n        address _referenceBouncerProxy = referenceBouncerProxy;\r\n        assembly { referenceCodeHash := extcodehash(_referenceBouncerProxy) }\r\n\r\n        require(referenceCodeHash == codeHash, \"Deployed code is different from reference\");\r\n\r\n        // Check if sender is whitelisted\r\n        require(localBouncer.whitelist(tx.origin), \"Tx originator is not whitelisted\");\r\n        // For fun, whitelist sender also\r\n        require(localBouncer.whitelist(msg.sender), \"Message sender is not whitelisted\");\r\n\r\n        // Crediting points\r\n        if (!exerciceProgression[msg.sender][6])\r\n        {\r\n            exerciceProgression[msg.sender][6] = true;\r\n            // ERC721 points\r\n            TDERC20.distributeTokens(msg.sender, 3);\r\n        }\r\n    }\r\n\r\n    function ex7_useBouncerProxyToCallEvaluator()\r\n    public\r\n    {\r\n    \r\n        // Retrieving caller contract code hash\r\n        bytes32 codeHash;\r\n        address _sender = msg.sender;\r\n        assembly { codeHash := extcodehash(_sender) }\r\n        // Checking it is the correct code hash\r\n        bytes32 referenceCodeHash;\r\n        address _referenceBouncerProxy = referenceBouncerProxy;\r\n        assembly { referenceCodeHash := extcodehash(_referenceBouncerProxy) }\r\n\r\n        require(referenceCodeHash == codeHash, \"Deployed code is different from reference\");\r\n\r\n        // Build bouncer proxy\r\n        BouncerProxy localBouncer = BouncerProxy(msg.sender);\r\n        // Check if sender is whitelisted\r\n        require(!localBouncer.whitelist(tx.origin), \"Tx originator is whitelisted\");\r\n\r\n        // Crediting points\r\n        if (!exerciceProgression[msg.sender][7])\r\n        {\r\n            exerciceProgression[msg.sender][7] = true;\r\n            // ERC721 points\r\n            TDERC20.distributeTokens(msg.sender, 4);\r\n        }\r\n    }\r\n\r\n    function ex8_allInOne() \r\n    public  \r\n    {\r\n        // Checking that solution has no token yet\r\n        uint256 initialBalance = TDERC20.balanceOf(msg.sender);\r\n        require(initialBalance == 0, \"Solution should start with 0 points\");\r\n\r\n        // Calling the solution so that it solves the workshop\r\n        IAllInOneSolution callerSolution = IAllInOneSolution(msg.sender);\r\n        callerSolution.completeWorkshop();\r\n\r\n        // Checking that at least 10 exercices where validated\r\n        uint256 finalBalance = TDERC20.balanceOf(msg.sender);\r\n        uint256 decimals = TDERC20.decimals();\r\n        require(finalBalance >= 10**decimals *16, \"Solution should end with at least than 2 points\");\r\n\r\n        if (!exerciceProgression[msg.sender][8])\r\n        {\r\n            exerciceProgression[msg.sender][8] = true;\r\n            // Distribute points\r\n            TDERC20.distributeTokens(msg.sender, 2);\r\n        }\r\n\r\n    }\r\n\r\n    modifier onlyTeachers() \r\n    {\r\n\r\n        require(TDERC20.teachers(msg.sender));\r\n        _;\r\n    }\r\n\r\n    /* Internal functions and modifiers */ \r\n    function submitExercice(IExerciceSolution studentExercice)\r\n    public\r\n    {\r\n        // Checking this contract was not used by another group before\r\n        require(!hasBeenPaired[address(studentExercice)]);\r\n\r\n        // Assigning passed ERC20 as student ERC20\r\n        studentExerciceSolution[msg.sender] = studentExercice;\r\n        hasBeenPaired[address(studentExercice)] = true;\r\n\r\n        if (!exerciceProgression[msg.sender][0])\r\n        {\r\n            exerciceProgression[msg.sender][0] = true;\r\n            // setup points\r\n            TDERC20.distributeTokens(msg.sender, 2);\r\n        }\r\n    }\r\n\r\n    function setRandomBytes32AndSignature(bytes32[20] memory _randomData, bytes[20] memory _signatures) \r\n    public \r\n    onlyTeachers\r\n    {\r\n        randomBytes32ToSign = _randomData;\r\n        associatedSignatures = _signatures;\r\n        nextValueStoreRank = 0;\r\n        for (uint i = 0; i < 20; i++)\r\n        {\r\n            emit newRandomBytes32AndSig(randomBytes32ToSign[i], associatedSignatures[i]);\r\n        }\r\n    }\r\n\r\n    function _compareStrings(string memory a, string memory b) \r\n    internal \r\n    pure \r\n    returns (bool) \r\n    {\r\n        return (keccak256(abi.encodePacked((a))) == keccak256(abi.encodePacked((b))));\r\n    }\r\n\r\n    function bytes32ToString(bytes32 _bytes32) \r\n    public \r\n    pure returns (string memory) \r\n    {\r\n        uint8 i = 0;\r\n        while(i < 32 && _bytes32[i] != 0) {\r\n            i++;\r\n        }\r\n        bytes memory bytesArray = new bytes(i);\r\n        for (i = 0; i < 32 && _bytes32[i] != 0; i++) {\r\n            bytesArray[i] = _bytes32[i];\r\n        }\r\n        return string(bytesArray);\r\n    }\r\n\r\n    function extractAddress(bytes32 _hash, bytes memory _signature) \r\n    internal \r\n    pure \r\n    returns (address) {\r\n        bytes32 r;\r\n        bytes32 s;\r\n        uint8 v;\r\n        // Check the signature length\r\n        if (_signature.length != 65) {\r\n            return address(0);\r\n        }\r\n        // Divide the signature in r, s and v variables\r\n        // ecrecover takes the signature parameters, and the only way to get them\r\n        // currently is to use assembly.\r\n        // solium-disable-next-line security/no-inline-assembly\r\n        assembly {\r\n            r := mload(add(_signature, 32))\r\n            s := mload(add(_signature, 64))\r\n            v := byte(0, mload(add(_signature, 96)))\r\n        }\r\n        // Version of signature should be 27 or 28, but 0 and 1 are also possible versions\r\n        if (v < 27) {\r\n            v += 27;\r\n        }\r\n        // If the version is correct return the signer address\r\n        if (v != 27 && v != 28) {\r\n            return address(0);\r\n        } else {\r\n            // solium-disable-next-line arg-overflow\r\n            return ecrecover(keccak256(\r\n                abi.encodePacked(\"\\x19Ethereum Signed Message:\\n32\", _hash)\r\n                ), v, r, s);\r\n        }\r\n    }\r\n}\r\n",
  "sourcePath": "C:\\Users\\marti\\GitHubProjects\\signatures-101\\contracts\\Evaluator.sol",
  "compiler": {
    "name": "solc",
    "version": "0.6.2+commit.bacdbe57.Emscripten.clang"
  },
  "schemaVersion": "3.4.10",
  "updatedAt": "2022-11-18T10:34:55.686Z",
  "devdoc": {
    "methods": {}
  },
  "userdoc": {
    "methods": {}
  }
}