{
  "contractName": "MyNFT",
  "abi": [
    {
      "inputs": [],
      "stateMutability": "nonpayable",
      "type": "constructor"
    },
    {
      "anonymous": false,
      "inputs": [
        {
          "indexed": true,
          "internalType": "address",
          "name": "owner",
          "type": "address"
        },
        {
          "indexed": true,
          "internalType": "address",
          "name": "approved",
          "type": "address"
        },
        {
          "indexed": true,
          "internalType": "uint256",
          "name": "tokenId",
          "type": "uint256"
        }
      ],
      "name": "Approval",
      "type": "event"
    },
    {
      "anonymous": false,
      "inputs": [
        {
          "indexed": true,
          "internalType": "address",
          "name": "owner",
          "type": "address"
        },
        {
          "indexed": true,
          "internalType": "address",
          "name": "operator",
          "type": "address"
        },
        {
          "indexed": false,
          "internalType": "bool",
          "name": "approved",
          "type": "bool"
        }
      ],
      "name": "ApprovalForAll",
      "type": "event"
    },
    {
      "anonymous": false,
      "inputs": [
        {
          "indexed": true,
          "internalType": "address",
          "name": "from",
          "type": "address"
        },
        {
          "indexed": true,
          "internalType": "address",
          "name": "to",
          "type": "address"
        },
        {
          "indexed": true,
          "internalType": "uint256",
          "name": "tokenId",
          "type": "uint256"
        }
      ],
      "name": "Transfer",
      "type": "event"
    },
    {
      "inputs": [
        {
          "internalType": "address",
          "name": "to",
          "type": "address"
        },
        {
          "internalType": "uint256",
          "name": "tokenId",
          "type": "uint256"
        }
      ],
      "name": "approve",
      "outputs": [],
      "stateMutability": "nonpayable",
      "type": "function"
    },
    {
      "inputs": [
        {
          "internalType": "address",
          "name": "owner",
          "type": "address"
        }
      ],
      "name": "balanceOf",
      "outputs": [
        {
          "internalType": "uint256",
          "name": "",
          "type": "uint256"
        }
      ],
      "stateMutability": "view",
      "type": "function"
    },
    {
      "inputs": [],
      "name": "baseURI",
      "outputs": [
        {
          "internalType": "string",
          "name": "",
          "type": "string"
        }
      ],
      "stateMutability": "view",
      "type": "function"
    },
    {
      "inputs": [
        {
          "internalType": "uint256",
          "name": "tokenId",
          "type": "uint256"
        }
      ],
      "name": "getApproved",
      "outputs": [
        {
          "internalType": "address",
          "name": "",
          "type": "address"
        }
      ],
      "stateMutability": "view",
      "type": "function"
    },
    {
      "inputs": [
        {
          "internalType": "address",
          "name": "owner",
          "type": "address"
        },
        {
          "internalType": "address",
          "name": "operator",
          "type": "address"
        }
      ],
      "name": "isApprovedForAll",
      "outputs": [
        {
          "internalType": "bool",
          "name": "",
          "type": "bool"
        }
      ],
      "stateMutability": "view",
      "type": "function"
    },
    {
      "inputs": [],
      "name": "name",
      "outputs": [
        {
          "internalType": "string",
          "name": "",
          "type": "string"
        }
      ],
      "stateMutability": "view",
      "type": "function"
    },
    {
      "inputs": [
        {
          "internalType": "uint256",
          "name": "tokenId",
          "type": "uint256"
        }
      ],
      "name": "ownerOf",
      "outputs": [
        {
          "internalType": "address",
          "name": "",
          "type": "address"
        }
      ],
      "stateMutability": "view",
      "type": "function"
    },
    {
      "inputs": [
        {
          "internalType": "address",
          "name": "from",
          "type": "address"
        },
        {
          "internalType": "address",
          "name": "to",
          "type": "address"
        },
        {
          "internalType": "uint256",
          "name": "tokenId",
          "type": "uint256"
        }
      ],
      "name": "safeTransferFrom",
      "outputs": [],
      "stateMutability": "nonpayable",
      "type": "function"
    },
    {
      "inputs": [
        {
          "internalType": "address",
          "name": "from",
          "type": "address"
        },
        {
          "internalType": "address",
          "name": "to",
          "type": "address"
        },
        {
          "internalType": "uint256",
          "name": "tokenId",
          "type": "uint256"
        },
        {
          "internalType": "bytes",
          "name": "_data",
          "type": "bytes"
        }
      ],
      "name": "safeTransferFrom",
      "outputs": [],
      "stateMutability": "nonpayable",
      "type": "function"
    },
    {
      "inputs": [
        {
          "internalType": "address",
          "name": "operator",
          "type": "address"
        },
        {
          "internalType": "bool",
          "name": "approved",
          "type": "bool"
        }
      ],
      "name": "setApprovalForAll",
      "outputs": [],
      "stateMutability": "nonpayable",
      "type": "function"
    },
    {
      "inputs": [
        {
          "internalType": "bytes4",
          "name": "interfaceId",
          "type": "bytes4"
        }
      ],
      "name": "supportsInterface",
      "outputs": [
        {
          "internalType": "bool",
          "name": "",
          "type": "bool"
        }
      ],
      "stateMutability": "view",
      "type": "function"
    },
    {
      "inputs": [],
      "name": "symbol",
      "outputs": [
        {
          "internalType": "string",
          "name": "",
          "type": "string"
        }
      ],
      "stateMutability": "view",
      "type": "function"
    },
    {
      "inputs": [
        {
          "internalType": "uint256",
          "name": "index",
          "type": "uint256"
        }
      ],
      "name": "tokenByIndex",
      "outputs": [
        {
          "internalType": "uint256",
          "name": "",
          "type": "uint256"
        }
      ],
      "stateMutability": "view",
      "type": "function"
    },
    {
      "inputs": [
        {
          "internalType": "address",
          "name": "owner",
          "type": "address"
        },
        {
          "internalType": "uint256",
          "name": "index",
          "type": "uint256"
        }
      ],
      "name": "tokenOfOwnerByIndex",
      "outputs": [
        {
          "internalType": "uint256",
          "name": "",
          "type": "uint256"
        }
      ],
      "stateMutability": "view",
      "type": "function"
    },
    {
      "inputs": [
        {
          "internalType": "uint256",
          "name": "tokenId",
          "type": "uint256"
        }
      ],
      "name": "tokenURI",
      "outputs": [
        {
          "internalType": "string",
          "name": "",
          "type": "string"
        }
      ],
      "stateMutability": "view",
      "type": "function"
    },
    {
      "inputs": [],
      "name": "totalSupply",
      "outputs": [
        {
          "internalType": "uint256",
          "name": "",
          "type": "uint256"
        }
      ],
      "stateMutability": "view",
      "type": "function"
    },
    {
      "inputs": [
        {
          "internalType": "address",
          "name": "from",
          "type": "address"
        },
        {
          "internalType": "address",
          "name": "to",
          "type": "address"
        },
        {
          "internalType": "uint256",
          "name": "tokenId",
          "type": "uint256"
        }
      ],
      "name": "transferFrom",
      "outputs": [],
      "stateMutability": "nonpayable",
      "type": "function"
    },
    {
      "inputs": [],
      "name": "mintToken",
      "outputs": [],
      "stateMutability": "nonpayable",
      "type": "function"
    }
  ],
  "bytecode": "0x60806040523480156200001157600080fd5b506040518060400160405280600c81526020017f4d617274696e6f546f6b656e00000000000000000000000000000000000000008152506040518060400160405280600381526020017f4d544b0000000000000000000000000000000000000000000000000000000000815250620000966301ffc9a760e01b6200012060201b60201c565b8160069080519060200190620000ae92919062000229565b508060079080519060200190620000c792919062000229565b50620000e06380ac58cd60e01b6200012060201b60201c565b620000f8635b5e139f60e01b6200012060201b60201c565b6200011063780e9d6360e01b6200012060201b60201c565b50506000600a81905550620002d8565b63ffffffff60e01b817bffffffffffffffffffffffffffffffffffffffffffffffffffffffff19161415620001bd576040517f08c379a000000000000000000000000000000000000000000000000000000000815260040180806020018281038252601c8152602001807f4552433136353a20696e76616c696420696e746572666163652069640000000081525060200191505060405180910390fd5b6001600080837bffffffffffffffffffffffffffffffffffffffffffffffffffffffff19167bffffffffffffffffffffffffffffffffffffffffffffffffffffffff1916815260200190815260200160002060006101000a81548160ff02191690831515021790555050565b828054600181600116156101000203166002900490600052602060002090601f016020900481019282601f106200026c57805160ff19168380011785556200029d565b828001600101855582156200029d579182015b828111156200029c5782518255916020019190600101906200027f565b5b509050620002ac9190620002b0565b5090565b620002d591905b80821115620002d1576000816000905550600101620002b7565b5090565b90565b612a2180620002e86000396000f3fe608060405234801561001057600080fd5b50600436106101165760003560e01c80634f6ccce7116100a257806395d89b411161007157806395d89b41146105b0578063a22cb46514610633578063b88d4fde14610683578063c87b56dd14610788578063e985e9c51461082f57610116565b80634f6ccce7146104255780636352211e146104675780636c0360eb146104d557806370a082311461055857610116565b806318160ddd116100e957806318160ddd146102bf5780632004ffd9146102dd57806323b872dd146102e75780632f745c591461035557806342842e0e146103b757610116565b806301ffc9a71461011b57806306fdde0314610180578063081812fc14610203578063095ea7b314610271575b600080fd5b6101666004803603602081101561013157600080fd5b8101908080357bffffffffffffffffffffffffffffffffffffffffffffffffffffffff191690602001909291905050506108ab565b604051808215151515815260200191505060405180910390f35b610188610912565b6040518080602001828103825283818151815260200191508051906020019080838360005b838110156101c85780820151818401526020810190506101ad565b50505050905090810190601f1680156101f55780820380516001836020036101000a031916815260200191505b509250505060405180910390f35b61022f6004803603602081101561021957600080fd5b81019080803590602001909291905050506109b4565b604051808273ffffffffffffffffffffffffffffffffffffffff1673ffffffffffffffffffffffffffffffffffffffff16815260200191505060405180910390f35b6102bd6004803603604081101561028757600080fd5b81019080803573ffffffffffffffffffffffffffffffffffffffff16906020019092919080359060200190929190505050610a4f565b005b6102c7610b93565b6040518082815260200191505060405180910390f35b6102e5610ba4565b005b610353600480360360608110156102fd57600080fd5b81019080803573ffffffffffffffffffffffffffffffffffffffff169060200190929190803573ffffffffffffffffffffffffffffffffffffffff16906020019092919080359060200190929190505050610bbe565b005b6103a16004803603604081101561036b57600080fd5b81019080803573ffffffffffffffffffffffffffffffffffffffff16906020019092919080359060200190929190505050610c34565b6040518082815260200191505060405180910390f35b610423600480360360608110156103cd57600080fd5b81019080803573ffffffffffffffffffffffffffffffffffffffff169060200190929190803573ffffffffffffffffffffffffffffffffffffffff16906020019092919080359060200190929190505050610c8f565b005b6104516004803603602081101561043b57600080fd5b8101908080359060200190929190505050610caf565b6040518082815260200191505060405180910390f35b6104936004803603602081101561047d57600080fd5b8101908080359060200190929190505050610cd2565b604051808273ffffffffffffffffffffffffffffffffffffffff1673ffffffffffffffffffffffffffffffffffffffff16815260200191505060405180910390f35b6104dd610d09565b6040518080602001828103825283818151815260200191508051906020019080838360005b8381101561051d578082015181840152602081019050610502565b50505050905090810190601f16801561054a5780820380516001836020036101000a031916815260200191505b509250505060405180910390f35b61059a6004803603602081101561056e57600080fd5b81019080803573ffffffffffffffffffffffffffffffffffffffff169060200190929190505050610dab565b6040518082815260200191505060405180910390f35b6105b8610e80565b6040518080602001828103825283818151815260200191508051906020019080838360005b838110156105f85780820151818401526020810190506105dd565b50505050905090810190601f1680156106255780820380516001836020036101000a031916815260200191505b509250505060405180910390f35b6106816004803603604081101561064957600080fd5b81019080803573ffffffffffffffffffffffffffffffffffffffff169060200190929190803515159060200190929190505050610f22565b005b6107866004803603608081101561069957600080fd5b81019080803573ffffffffffffffffffffffffffffffffffffffff169060200190929190803573ffffffffffffffffffffffffffffffffffffffff169060200190929190803590602001909291908035906020019064010000000081111561070057600080fd5b82018360208201111561071257600080fd5b8035906020019184600183028401116401000000008311171561073457600080fd5b91908080601f016020809104026020016040519081016040528093929190818152602001838380828437600081840152601f19601f8201169050808301925050505050505091929192905050506110da565b005b6107b46004803603602081101561079e57600080fd5b8101908080359060200190929190505050611152565b6040518080602001828103825283818151815260200191508051906020019080838360005b838110156107f45780820151818401526020810190506107d9565b50505050905090810190601f1680156108215780820380516001836020036101000a031916815260200191505b509250505060405180910390f35b6108916004803603604081101561084557600080fd5b81019080803573ffffffffffffffffffffffffffffffffffffffff169060200190929190803573ffffffffffffffffffffffffffffffffffffffff169060200190929190505050611423565b604051808215151515815260200191505060405180910390f35b6000806000837bffffffffffffffffffffffffffffffffffffffffffffffffffffffff19167bffffffffffffffffffffffffffffffffffffffffffffffffffffffff1916815260200190815260200160002060009054906101000a900460ff169050919050565b606060068054600181600116156101000203166002900480601f0160208091040260200160405190810160405280929190818152602001828054600181600116156101000203166002900480156109aa5780601f1061097f576101008083540402835291602001916109aa565b820191906000526020600020905b81548152906001019060200180831161098d57829003601f168201915b5050505050905090565b60006109bf826114b7565b610a14576040517f08c379a000000000000000000000000000000000000000000000000000000000815260040180806020018281038252602c815260200180612916602c913960400191505060405180910390fd5b6004600083815260200190815260200160002060009054906101000a900473ffffffffffffffffffffffffffffffffffffffff169050919050565b6000610a5a82610cd2565b90508073ffffffffffffffffffffffffffffffffffffffff168373ffffffffffffffffffffffffffffffffffffffff161415610ae1576040517f08c379a000000000000000000000000000000000000000000000000000000000815260040180806020018281038252602181526020018061299a6021913960400191505060405180910390fd5b8073ffffffffffffffffffffffffffffffffffffffff16610b006114d4565b73ffffffffffffffffffffffffffffffffffffffff161480610b2f5750610b2e81610b296114d4565b611423565b5b610b84576040517f08c379a00000000000000000000000000000000000000000000000000000000081526004018080602001828103825260388152602001806128696038913960400191505060405180910390fd5b610b8e83836114dc565b505050565b6000610b9f6002611595565b905090565b610bb033600a546115aa565b6001600a5401600a81905550565b610bcf610bc96114d4565b826115c8565b610c24576040517f08c379a00000000000000000000000000000000000000000000000000000000081526004018080602001828103825260318152602001806129bb6031913960400191505060405180910390fd5b610c2f8383836116bc565b505050565b6000610c8782600160008673ffffffffffffffffffffffffffffffffffffffff1673ffffffffffffffffffffffffffffffffffffffff1681526020019081526020016000206118ff90919063ffffffff16565b905092915050565b610caa838383604051806020016040528060008152506110da565b505050565b600080610cc683600261191990919063ffffffff16565b50905080915050919050565b6000610d02826040518060600160405280602981526020016128cb6029913960026119489092919063ffffffff16565b9050919050565b606060098054600181600116156101000203166002900480601f016020809104026020016040519081016040528092919081815260200182805460018160011615610100020316600290048015610da15780601f10610d7657610100808354040283529160200191610da1565b820191906000526020600020905b815481529060010190602001808311610d8457829003601f168201915b5050505050905090565b60008073ffffffffffffffffffffffffffffffffffffffff168273ffffffffffffffffffffffffffffffffffffffff161415610e32576040517f08c379a000000000000000000000000000000000000000000000000000000000815260040180806020018281038252602a8152602001806128a1602a913960400191505060405180910390fd5b610e79600160008473ffffffffffffffffffffffffffffffffffffffff1673ffffffffffffffffffffffffffffffffffffffff168152602001908152602001600020611967565b9050919050565b606060078054600181600116156101000203166002900480601f016020809104026020016040519081016040528092919081815260200182805460018160011615610100020316600290048015610f185780601f10610eed57610100808354040283529160200191610f18565b820191906000526020600020905b815481529060010190602001808311610efb57829003601f168201915b5050505050905090565b610f2a6114d4565b73ffffffffffffffffffffffffffffffffffffffff168273ffffffffffffffffffffffffffffffffffffffff161415610fcb576040517f08c379a00000000000000000000000000000000000000000000000000000000081526004018080602001828103825260198152602001807f4552433732313a20617070726f766520746f2063616c6c65720000000000000081525060200191505060405180910390fd5b8060056000610fd86114d4565b73ffffffffffffffffffffffffffffffffffffffff1673ffffffffffffffffffffffffffffffffffffffff16815260200190815260200160002060008473ffffffffffffffffffffffffffffffffffffffff1673ffffffffffffffffffffffffffffffffffffffff16815260200190815260200160002060006101000a81548160ff0219169083151502179055508173ffffffffffffffffffffffffffffffffffffffff166110856114d4565b73ffffffffffffffffffffffffffffffffffffffff167f17307eab39ab6107e8899845ad3d59bd9653f200f220920489ca2b5937696c3183604051808215151515815260200191505060405180910390a35050565b6110eb6110e56114d4565b836115c8565b611140576040517f08c379a00000000000000000000000000000000000000000000000000000000081526004018080602001828103825260318152602001806129bb6031913960400191505060405180910390fd5b61114c8484848461197c565b50505050565b606061115d826114b7565b6111b2576040517f08c379a000000000000000000000000000000000000000000000000000000000815260040180806020018281038252602f81526020018061296b602f913960400191505060405180910390fd5b6060600860008481526020019081526020016000208054600181600116156101000203166002900480601f01602080910402602001604051908101604052809291908181526020018280546001816001161561010002031660029004801561125b5780601f106112305761010080835404028352916020019161125b565b820191906000526020600020905b81548152906001019060200180831161123e57829003601f168201915b50505050509050606061126c610d09565b905060008151141561128257819250505061141e565b6000825111156113535780826040516020018083805190602001908083835b602083106112c457805182526020820191506020810190506020830392506112a1565b6001836020036101000a03801982511681845116808217855250505050505090500182805190602001908083835b6020831061131557805182526020820191506020810190506020830392506112f2565b6001836020036101000a038019825116818451168082178552505050505050905001925050506040516020818303038152906040529250505061141e565b8061135d856119ee565b6040516020018083805190602001908083835b602083106113935780518252602082019150602081019050602083039250611370565b6001836020036101000a03801982511681845116808217855250505050505090500182805190602001908083835b602083106113e457805182526020820191506020810190506020830392506113c1565b6001836020036101000a03801982511681845116808217855250505050505090500192505050604051602081830303815290604052925050505b919050565b6000600560008473ffffffffffffffffffffffffffffffffffffffff1673ffffffffffffffffffffffffffffffffffffffff16815260200190815260200160002060008373ffffffffffffffffffffffffffffffffffffffff1673ffffffffffffffffffffffffffffffffffffffff16815260200190815260200160002060009054906101000a900460ff16905092915050565b60006114cd826002611b1e90919063ffffffff16565b9050919050565b600033905090565b816004600083815260200190815260200160002060006101000a81548173ffffffffffffffffffffffffffffffffffffffff021916908373ffffffffffffffffffffffffffffffffffffffff160217905550808273ffffffffffffffffffffffffffffffffffffffff1661154f83610cd2565b73ffffffffffffffffffffffffffffffffffffffff167f8c5be1e5ebec7d5bd14f71427d1e84f3dd0314c0f7b2291e5b200ac8c7c3b92560405160405180910390a45050565b60006115a382600001611b38565b9050919050565b6115c4828260405180602001604052806000815250611b49565b5050565b60006115d3826114b7565b611628576040517f08c379a000000000000000000000000000000000000000000000000000000000815260040180806020018281038252602c81526020018061283d602c913960400191505060405180910390fd5b600061163383610cd2565b90508073ffffffffffffffffffffffffffffffffffffffff168473ffffffffffffffffffffffffffffffffffffffff1614806116a257508373ffffffffffffffffffffffffffffffffffffffff1661168a846109b4565b73ffffffffffffffffffffffffffffffffffffffff16145b806116b357506116b28185611423565b5b91505092915050565b8273ffffffffffffffffffffffffffffffffffffffff166116dc82610cd2565b73ffffffffffffffffffffffffffffffffffffffff1614611748576040517f08c379a00000000000000000000000000000000000000000000000000000000081526004018080602001828103825260298152602001806129426029913960400191505060405180910390fd5b600073ffffffffffffffffffffffffffffffffffffffff168273ffffffffffffffffffffffffffffffffffffffff1614156117ce576040517f08c379a00000000000000000000000000000000000000000000000000000000081526004018080602001828103825260248152602001806127f36024913960400191505060405180910390fd5b6117d9838383611bba565b6117e46000826114dc565b61183581600160008673ffffffffffffffffffffffffffffffffffffffff1673ffffffffffffffffffffffffffffffffffffffff168152602001908152602001600020611bbf90919063ffffffff16565b5061188781600160008573ffffffffffffffffffffffffffffffffffffffff1673ffffffffffffffffffffffffffffffffffffffff168152602001908152602001600020611bd990919063ffffffff16565b5061189e81836002611bf39092919063ffffffff16565b50808273ffffffffffffffffffffffffffffffffffffffff168473ffffffffffffffffffffffffffffffffffffffff167fddf252ad1be2c89b69c2b068fc378daa952ba7f163c4a11628f55a4df523b3ef60405160405180910390a4505050565b600061190e8360000183611c28565b60001c905092915050565b60008060008061192c8660000186611cab565b915091508160001c8160001c8090509350935050509250929050565b600061195b846000018460001b84611d44565b60001c90509392505050565b600061197582600001611e3a565b9050919050565b6119878484846116bc565b61199384848484611e4b565b6119e8576040517f08c379a00000000000000000000000000000000000000000000000000000000081526004018080602001828103825260328152602001806127c16032913960400191505060405180910390fd5b50505050565b60606000821415611a36576040518060400160405280600181526020017f30000000000000000000000000000000000000000000000000000000000000008152509050611b19565b600082905060005b60008214611a60578080600101915050600a8281611a5857fe5b049150611a3e565b6060816040519080825280601f01601f191660200182016040528015611a955781602001600182028038833980820191505090505b50905060006001830390508593505b60008414611b1157600a8481611ab657fe5b0660300160f81b82828060019003935081518110611ad057fe5b60200101907effffffffffffffffffffffffffffffffffffffffffffffffffffffffffffff1916908160001a905350600a8481611b0957fe5b049350611aa4565b819450505050505b919050565b6000611b30836000018360001b612090565b905092915050565b600081600001805490509050919050565b611b5383836120b3565b611b606000848484611e4b565b611bb5576040517f08c379a00000000000000000000000000000000000000000000000000000000081526004018080602001828103825260328152602001806127c16032913960400191505060405180910390fd5b505050565b505050565b6000611bd1836000018360001b6122a7565b905092915050565b6000611beb836000018360001b61238f565b905092915050565b6000611c1f846000018460001b8473ffffffffffffffffffffffffffffffffffffffff1660001b6123ff565b90509392505050565b600081836000018054905011611c89576040517f08c379a000000000000000000000000000000000000000000000000000000000815260040180806020018281038252602281526020018061279f6022913960400191505060405180910390fd5b826000018281548110611c9857fe5b9060005260206000200154905092915050565b60008082846000018054905011611d0d576040517f08c379a00000000000000000000000000000000000000000000000000000000081526004018080602001828103825260228152602001806128f46022913960400191505060405180910390fd5b6000846000018481548110611d1e57fe5b906000526020600020906002020190508060000154816001015492509250509250929050565b60008084600101600085815260200190815260200160002054905060008114158390611e0b576040517f08c379a00000000000000000000000000000000000000000000000000000000081526004018080602001828103825283818151815260200191508051906020019080838360005b83811015611dd0578082015181840152602081019050611db5565b50505050905090810190601f168015611dfd5780820380516001836020036101000a031916815260200191505b509250505060405180910390fd5b50846000016001820381548110611e1e57fe5b9060005260206000209060020201600101549150509392505050565b600081600001805490509050919050565b6000611e6c8473ffffffffffffffffffffffffffffffffffffffff166124db565b611e795760019050612088565b606061200f63150b7a0260e01b611e8e6114d4565b888787604051602401808573ffffffffffffffffffffffffffffffffffffffff1673ffffffffffffffffffffffffffffffffffffffff1681526020018473ffffffffffffffffffffffffffffffffffffffff1673ffffffffffffffffffffffffffffffffffffffff16815260200183815260200180602001828103825283818151815260200191508051906020019080838360005b83811015611f3e578082015181840152602081019050611f23565b50505050905090810190601f168015611f6b5780820380516001836020036101000a031916815260200191505b5095505050505050604051602081830303815290604052907bffffffffffffffffffffffffffffffffffffffffffffffffffffffff19166020820180517bffffffffffffffffffffffffffffffffffffffffffffffffffffffff83818316178352505050506040518060600160405280603281526020016127c1603291398773ffffffffffffffffffffffffffffffffffffffff166124ee9092919063ffffffff16565b9050600081806020019051602081101561202857600080fd5b8101908080519060200190929190505050905063150b7a0260e01b7bffffffffffffffffffffffffffffffffffffffffffffffffffffffff1916817bffffffffffffffffffffffffffffffffffffffffffffffffffffffff191614925050505b949350505050565b600080836001016000848152602001908152602001600020541415905092915050565b600073ffffffffffffffffffffffffffffffffffffffff168273ffffffffffffffffffffffffffffffffffffffff161415612156576040517f08c379a00000000000000000000000000000000000000000000000000000000081526004018080602001828103825260208152602001807f4552433732313a206d696e7420746f20746865207a65726f206164647265737381525060200191505060405180910390fd5b61215f816114b7565b156121d2576040517f08c379a000000000000000000000000000000000000000000000000000000000815260040180806020018281038252601c8152602001807f4552433732313a20746f6b656e20616c7265616479206d696e7465640000000081525060200191505060405180910390fd5b6121de60008383611bba565b61222f81600160008573ffffffffffffffffffffffffffffffffffffffff1673ffffffffffffffffffffffffffffffffffffffff168152602001908152602001600020611bd990919063ffffffff16565b5061224681836002611bf39092919063ffffffff16565b50808273ffffffffffffffffffffffffffffffffffffffff16600073ffffffffffffffffffffffffffffffffffffffff167fddf252ad1be2c89b69c2b068fc378daa952ba7f163c4a11628f55a4df523b3ef60405160405180910390a45050565b6000808360010160008481526020019081526020016000205490506000811461238357600060018203905060006001866000018054905003905060008660000182815481106122f257fe5b906000526020600020015490508087600001848154811061230f57fe5b906000526020600020018190555060018301876001016000838152602001908152602001600020819055508660000180548061234757fe5b60019003818190600052602060002001600090559055866001016000878152602001908152602001600020600090556001945050505050612389565b60009150505b92915050565b600061239b8383612506565b6123f45782600001829080600181540180825580915050600190039060005260206000200160009091909190915055826000018054905083600101600084815260200190815260200160002081905550600190506123f9565b600090505b92915050565b60008084600101600085815260200190815260200160002054905060008114156124a6578460000160405180604001604052808681526020018581525090806001815401808255809150506001900390600052602060002090600202016000909190919091506000820151816000015560208201518160010155505084600001805490508560010160008681526020019081526020016000208190555060019150506124d4565b828560000160018303815481106124b957fe5b90600052602060002090600202016001018190555060009150505b9392505050565b600080823b905060008111915050919050565b60606124fd8484600085612529565b90509392505050565b600080836001016000848152602001908152602001600020541415905092915050565b606082471015612584576040517f08c379a00000000000000000000000000000000000000000000000000000000081526004018080602001828103825260268152602001806128176026913960400191505060405180910390fd5b61258d856124db565b6125ff576040517f08c379a000000000000000000000000000000000000000000000000000000000815260040180806020018281038252601d8152602001807f416464726573733a2063616c6c20746f206e6f6e2d636f6e747261637400000081525060200191505060405180910390fd5b600060608673ffffffffffffffffffffffffffffffffffffffff1685876040518082805190602001908083835b6020831061264f578051825260208201915060208101905060208303925061262c565b6001836020036101000a03801982511681845116808217855250505050505090500191505060006040518083038185875af1925050503d80600081146126b1576040519150601f19603f3d011682016040523d82523d6000602084013e6126b6565b606091505b50915091506126c68282866126d2565b92505050949350505050565b606083156126e257829050612797565b6000835111156126f55782518084602001fd5b816040517f08c379a00000000000000000000000000000000000000000000000000000000081526004018080602001828103825283818151815260200191508051906020019080838360005b8381101561275c578082015181840152602081019050612741565b50505050905090810190601f1680156127895780820380516001836020036101000a031916815260200191505b509250505060405180910390fd5b939250505056fe456e756d657261626c655365743a20696e646578206f7574206f6620626f756e64734552433732313a207472616e7366657220746f206e6f6e20455243373231526563656976657220696d706c656d656e7465724552433732313a207472616e7366657220746f20746865207a65726f2061646472657373416464726573733a20696e73756666696369656e742062616c616e636520666f722063616c6c4552433732313a206f70657261746f7220717565727920666f72206e6f6e6578697374656e7420746f6b656e4552433732313a20617070726f76652063616c6c6572206973206e6f74206f776e6572206e6f7220617070726f76656420666f7220616c6c4552433732313a2062616c616e636520717565727920666f7220746865207a65726f20616464726573734552433732313a206f776e657220717565727920666f72206e6f6e6578697374656e7420746f6b656e456e756d657261626c654d61703a20696e646578206f7574206f6620626f756e64734552433732313a20617070726f76656420717565727920666f72206e6f6e6578697374656e7420746f6b656e4552433732313a207472616e73666572206f6620746f6b656e2074686174206973206e6f74206f776e4552433732314d657461646174613a2055524920717565727920666f72206e6f6e6578697374656e7420746f6b656e4552433732313a20617070726f76616c20746f2063757272656e74206f776e65724552433732313a207472616e736665722063616c6c6572206973206e6f74206f776e6572206e6f7220617070726f766564a2646970667358221220cb3ee35dc6befaf135ddfac6e443163a93fea7ce78c01af21e98a63dba27617c64736f6c63430006020033",
  "source": "pragma solidity ^0.6.0;\r\nimport \"@openzeppelin/contracts/token/ERC721/ERC721.sol\";\r\n\r\ncontract MyNFT is ERC721\r\n{\r\nuint tokenId;\r\nconstructor() ERC721(\"MartinoToken\",\"MTK\") public{\r\n        tokenId=0;\r\n\t}\r\n\r\n\r\nfunction mintToken() external{\r\n    _safeMint(msg.sender, tokenId);\r\n    tokenId=tokenId+1;\r\n}\r\n}\r\n",
  "sourcePath": "C:\\Users\\marti\\GitHubProjects\\signatures-101\\contracts\\MyNFT.sol",
  "compiler": {
    "name": "solc",
    "version": "0.6.2+commit.bacdbe57.Emscripten.clang"
  },
  "schemaVersion": "3.4.10",
  "updatedAt": "2022-11-18T10:48:01.095Z",
  "devdoc": {
    "methods": {
      "approve(address,uint256)": {
        "details": "See {IERC721-approve}."
      },
      "balanceOf(address)": {
        "details": "See {IERC721-balanceOf}."
      },
      "baseURI()": {
        "details": "Returns the base URI set via {_setBaseURI}. This will be automatically added as a prefix in {tokenURI} to each token's URI, or to the token ID if no specific URI is set for that token ID."
      },
      "getApproved(uint256)": {
        "details": "See {IERC721-getApproved}."
      },
      "isApprovedForAll(address,address)": {
        "details": "See {IERC721-isApprovedForAll}."
      },
      "name()": {
        "details": "See {IERC721Metadata-name}."
      },
      "ownerOf(uint256)": {
        "details": "See {IERC721-ownerOf}."
      },
      "safeTransferFrom(address,address,uint256)": {
        "details": "See {IERC721-safeTransferFrom}."
      },
      "safeTransferFrom(address,address,uint256,bytes)": {
        "details": "See {IERC721-safeTransferFrom}."
      },
      "setApprovalForAll(address,bool)": {
        "details": "See {IERC721-setApprovalForAll}."
      },
      "supportsInterface(bytes4)": {
        "details": "See {IERC165-supportsInterface}.     * Time complexity O(1), guaranteed to always use less than 30 000 gas."
      },
      "symbol()": {
        "details": "See {IERC721Metadata-symbol}."
      },
      "tokenByIndex(uint256)": {
        "details": "See {IERC721Enumerable-tokenByIndex}."
      },
      "tokenOfOwnerByIndex(address,uint256)": {
        "details": "See {IERC721Enumerable-tokenOfOwnerByIndex}."
      },
      "tokenURI(uint256)": {
        "details": "See {IERC721Metadata-tokenURI}."
      },
      "totalSupply()": {
        "details": "See {IERC721Enumerable-totalSupply}."
      },
      "transferFrom(address,address,uint256)": {
        "details": "See {IERC721-transferFrom}."
      }
    }
  },
  "userdoc": {
    "methods": {}
  }
}